{
  "transactions": [
    {
      "hash": "0xa4797b012191f7f61deaa7f940288049cf11cbd8b8688a2116552cb4c06261f0",
      "transactionType": "CALL",
      "contractName": null,
      "contractAddress": "0xf0c848387950609a3f97e3d67363c46562ad0e28",
      "function": "approve(address,uint256)",
      "arguments": [
        "0xb38139e077621421eba724008bB33C10996E6435",
        "115792089237316195423570985008687907853269984665640564039457584007913129639935"
      ],
      "transaction": {
        "from": "0x742812a2ff08b76f968dffa7ca6892a428caebb1",
        "to": "0xf0c848387950609a3f97e3d67363c46562ad0e28",
        "gas": "0xec9d41e",
        "value": "0x0",
        "input": "0x095ea7b3000000000000000000000000b38139e077621421eba724008bb33c10996e6435ffffffffffffffffffffffffffffffffffffffffffffffffffffffffffffffff",
        "nonce": "0x94",
        "chainId": "0x138b"
      },
      "additionalContracts": [],
      "isFixedGasLimit": false
    }
  ],
  "receipts": [
    {
      "status": "0x1",
      "cumulativeGasUsed": "0x96a4598",
      "logs": [
        {
          "address": "0xf0c848387950609a3f97e3d67363c46562ad0e28",
          "topics": [
            "0x8c5be1e5ebec7d5bd14f71427d1e84f3dd0314c0f7b2291e5b200ac8c7c3b925",
            "0x000000000000000000000000742812a2ff08b76f968dffa7ca6892a428caebb1",
            "0x000000000000000000000000b38139e077621421eba724008bb33c10996e6435"
          ],
          "data": "0xffffffffffffffffffffffffffffffffffffffffffffffffffffffffffffffff",
          "blockHash": "0xd68540ce3c02b1da0e3dea011e9d2267ec4c2186dfd23cbb7b405eded8bb01d0",
          "blockNumber": "0x1fd7260",
          "blockTimestamp": "0x696667a1",
          "transactionHash": "0xa4797b012191f7f61deaa7f940288049cf11cbd8b8688a2116552cb4c06261f0",
          "transactionIndex": "0x1",
          "logIndex": "0x0",
          "removed": false
        }
      ],
      "logsBloom": "0x00010000000000000000000000000000008000000000000000000000000000000000000000000000004000000000000000000000000000000000000000200000000000000000000000000000000000000000000000000000000000000000000000000000000000000004000000000000100000000000000000000000000000000000000000000000100000000000000000000000000000000000000000001000020000000000000000000000000000000000000000020000000000000000000000000000000000000000000000000000000000000000000000000000000000000010000000000000000000000000000000000000000040000000000000000000",
      "type": "0x2",
      "transactionHash": "0xa4797b012191f7f61deaa7f940288049cf11cbd8b8688a2116552cb4c06261f0",
      "transactionIndex": "0x1",
      "blockHash": "0xd68540ce3c02b1da0e3dea011e9d2267ec4c2186dfd23cbb7b405eded8bb01d0",
      "blockNumber": "0x1fd7260",
      "gasUsed": "0x9698e93",
      "effectiveGasPrice": "0x132b3a0",
      "from": "0x742812a2ff08b76f968dffa7ca6892a428caebb1",
      "to": "0xf0c848387950609a3f97e3d67363c46562ad0e28",
      "contractAddress": null,
      "l1Fee": "0x573c76953666",
      "l1FeeScalar": "0.01",
      "l1GasPrice": "0x3b34b578",
      "l1GasUsed": "0xb80",
      "tokenRatio": "0xcd0"
    }
  ],
  "libraries": [],
  "pending": [],
  "returns": {},
  "timestamp": 1768318883552,
  "chain": 5003,
  "commit": "c8817bd"
}