{
  "transactions": [
    {
      "hash": "0x1cf373550b8877537d7e16dc02ab3d7307f97e811823b9a7cc65408afeed6a71",
      "transactionType": "CALL",
      "contractName": null,
      "contractAddress": "0xf0c848387950609a3f97e3d67363c46562ad0e28",
      "function": "publicMint(address,uint256)",
      "arguments": [
        "0x742812a2Ff08b76f968dffA7ca6892A428cAeBb1",
        "100000000000000000000"
      ],
      "transaction": {
        "from": "0x742812a2ff08b76f968dffa7ca6892a428caebb1",
        "to": "0xf0c848387950609a3f97e3d67363c46562ad0e28",
        "gas": "0x10a8d99e",
        "value": "0x0",
        "input": "0xce6df2b9000000000000000000000000742812a2ff08b76f968dffa7ca6892a428caebb10000000000000000000000000000000000000000000000056bc75e2d63100000",
        "nonce": "0x93",
        "chainId": "0x138b"
      },
      "additionalContracts": [],
      "isFixedGasLimit": false
    }
  ],
  "receipts": [
    {
      "status": "0x1",
      "cumulativeGasUsed": "0xa9978df",
      "logs": [
        {
          "address": "0xf0c848387950609a3f97e3d67363c46562ad0e28",
          "topics": [
            "0xddf252ad1be2c89b69c2b068fc378daa952ba7f163c4a11628f55a4df523b3ef",
            "0x0000000000000000000000000000000000000000000000000000000000000000",
            "0x000000000000000000000000742812a2ff08b76f968dffa7ca6892a428caebb1"
          ],
          "data": "0x0000000000000000000000000000000000000000000000056bc75e2d63100000",
          "blockHash": "0x2a100e7c9f3ebf79c75c224f84e05c2d3918e23f783b30b611984445f76d0d5d",
          "blockNumber": "0x1fd7251",
          "blockTimestamp": "0x69666783",
          "transactionHash": "0x1cf373550b8877537d7e16dc02ab3d7307f97e811823b9a7cc65408afeed6a71",
          "transactionIndex": "0x1",
          "logIndex": "0x0",
          "removed": false
        },
        {
          "address": "0xf0c848387950609a3f97e3d67363c46562ad0e28",
          "topics": [
            "0x0f6798a560793a54c3bcfe86a93cde1e73087d944c0ea20544137d4121396885",
            "0x000000000000000000000000742812a2ff08b76f968dffa7ca6892a428caebb1"
          ],
          "data": "0x0000000000000000000000000000000000000000000000056bc75e2d63100000",
          "blockHash": "0x2a100e7c9f3ebf79c75c224f84e05c2d3918e23f783b30b611984445f76d0d5d",
          "blockNumber": "0x1fd7251",
          "blockTimestamp": "0x69666783",
          "transactionHash": "0x1cf373550b8877537d7e16dc02ab3d7307f97e811823b9a7cc65408afeed6a71",
          "transactionIndex": "0x1",
          "logIndex": "0x1",
          "removed": false
        }
      ],
      "logsBloom": "0x00010000000000000000000000000000008000000000000000000000000000000000000000000000004000000000000000000000000000000000000000000000000000000020000000000008000000000000000000000000000000000000000000000000020000000000000000000800100000000000400000000010000000000000000000000000000000000000000000000000000000000000000000000000000080000000000000000000000000000000000000020000000000000000000000000002000000000000000000000000000000000000000000000000000020000000000000000000000000000000000000000000000040000000000000000000",
      "type": "0x2",
      "transactionHash": "0x1cf373550b8877537d7e16dc02ab3d7307f97e811823b9a7cc65408afeed6a71",
      "transactionIndex": "0x1",
      "blockHash": "0x2a100e7c9f3ebf79c75c224f84e05c2d3918e23f783b30b611984445f76d0d5d",
      "blockNumber": "0x1fd7251",
      "gasUsed": "0xa98c1c2",
      "effectiveGasPrice": "0x132b3a0",
      "from": "0x742812a2ff08b76f968dffa7ca6892a428caebb1",
      "to": "0xf0c848387950609a3f97e3d67363c46562ad0e28",
      "contractAddress": null,
      "l1Fee": "0x50bfe1057599",
      "l1FeeScalar": "0.01",
      "l1GasPrice": "0x3cbefcc8",
      "l1GasUsed": "0xa60",
      "tokenRatio": "0xcd0"
    }
  ],
  "libraries": [],
  "pending": [],
  "returns": {},
  "timestamp": 1768318852082,
  "chain": 5003,
  "commit": "c8817bd"
}