{
  "transactions": [
    {
      "hash": "0x275a1ddb05bbb2da34f867dc4818f66980e7dc8d73c27fcb66519e47d15386f4",
      "transactionType": "CALL",
      "contractName": null,
      "contractAddress": "0x799fe52fa871eb8e4420fec9d1b81c6297e712a5",
      "function": "registerIdentity(address)",
      "arguments": [
        "0xBdfD81D4e79c0cC949BB52941BCd30Ed8b3B4112"
      ],
      "transaction": {
        "from": "0x742812a2ff08b76f968dffa7ca6892a428caebb1",
        "to": "0x799fe52fa871eb8e4420fec9d1b81c6297e712a5",
        "gas": "0x10d1c",
        "value": "0x0",
        "input": "0x63b8f8ff000000000000000000000000bdfd81d4e79c0cc949bb52941bcd30ed8b3b4112",
        "nonce": "0xa",
        "chainId": "0x106a"
      },
      "additionalContracts": [],
      "isFixedGasLimit": false
    }
  ],
  "receipts": [
    {
      "status": "0x1",
      "cumulativeGasUsed": "0x17723",
      "logs": [
        {
          "address": "0x799fe52fa871eb8e4420fec9d1b81c6297e712a5",
          "topics": [
            "0x22bfb6218489c201b6ec174e5dd0380b7877b3a2d12eed0542f6b5e8ef712f28",
            "0x000000000000000000000000bdfd81d4e79c0cc949bb52941bcd30ed8b3b4112"
          ],
          "data": "0x00000000000000000000000000000000000000000000000000000000695875fe",
          "blockHash": "0x2ad741a600d3a2eab06d7a242b87c938ba1e78e8e9cd472ae703c2e6ed584197",
          "blockNumber": "0x1d9b98f",
          "blockTimestamp": "0x695875fe",
          "transactionHash": "0x275a1ddb05bbb2da34f867dc4818f66980e7dc8d73c27fcb66519e47d15386f4",
          "transactionIndex": "0x1",
          "logIndex": "0x0",
          "removed": false
        }
      ],
      "logsBloom": "0x00000000000000000000000000000100000000000000000000000000000000000000000000800000000000001000000000000000000000000000000000000000000002000000000000000000000000000000000000000000000000000000000000000000000000000000000000000000000000000400000000000000000000000000001000000000000000000000000000000000000000000800000000000000000000000000000000000000000000000000000000000000000000000000000000000000000000000000000000000000000000000000000000000000000400000000000000000000000000000000000000000000000000000000000000000008",
      "type": "0x2",
      "transactionHash": "0x275a1ddb05bbb2da34f867dc4818f66980e7dc8d73c27fcb66519e47d15386f4",
      "transactionIndex": "0x1",
      "blockHash": "0x2ad741a600d3a2eab06d7a242b87c938ba1e78e8e9cd472ae703c2e6ed584197",
      "blockNumber": "0x1d9b98f",
      "gasUsed": "0xc2d5",
      "effectiveGasPrice": "0xfe",
      "blobGasUsed": "0x9c40",
      "from": "0x742812a2ff08b76f968dffa7ca6892a428caebb1",
      "to": "0x799fe52fa871eb8e4420fec9d1b81c6297e712a5",
      "contractAddress": null,
      "daFootprintGasScalar": "0x190",
      "l1BaseFeeScalar": "0x2af8",
      "l1BlobBaseFee": "0x1",
      "l1BlobBaseFeeScalar": "0x109618",
      "l1Fee": "0xf9",
      "l1GasPrice": "0x8",
      "l1GasUsed": "0x640"
    }
  ],
  "libraries": [],
  "pending": [],
  "returns": {},
  "timestamp": 1767405054167,
  "chain": 4202,
  "commit": "91392b9"
}